{
    "_format": "hh-sol-artifact-1",
    "contractName": "documentVerify",
    "sourceName": "contracts/verify.sol",
    "abi": [
        {
            "anonymous": false,
            "inputs": [
                {
                    "indexed": false,
                    "internalType": "address",
                    "name": "from",
                    "type": "address"
                },
                {
                    "indexed": false,
                    "internalType": "string",
                    "name": "doc_hash",
                    "type": "string"
                },
                {
                    "indexed": false,
                    "internalType": "string",
                    "name": "public_key",
                    "type": "string"
                }
            ],
            "name": "doc_entry",
            "type": "event"
        },
        {
            "inputs": [
                {
                    "internalType": "string",
                    "name": "doc_hash",
                    "type": "string"
                },
                {
                    "internalType": "string",
                    "name": "public_key",
                    "type": "string"
                }
            ],
            "name": "secureDocument",
            "outputs": [],
            "stateMutability": "nonpayable",
            "type": "function"
        },
        {
            "inputs": [
                {
                    "internalType": "string",
                    "name": "doc_hash",
                    "type": "string"
                },
                {
                    "internalType": "string",
                    "name": "public_key",
                    "type": "string"
                }
            ],
            "name": "validateDocument",
            "outputs": [
                {
                    "internalType": "bool",
                    "name": "",
                    "type": "bool"
                }
            ],
            "stateMutability": "view",
            "type": "function"
        }
    ],
    "bytecode": "0x608060405234801561001057600080fd5b50610ad9806100206000396000f3fe608060405234801561001057600080fd5b50600436106100365760003560e01c80633a6f30651461003b5780639669e5e114610057575b600080fd5b61005560048036038101906100509190610523565b610087565b005b610071600480360381019061006c9190610523565b6101b0565b60405161007e91906105b6565b60405180910390f35b6001600080828254610099919061060a565b92505081905550600160405180606001604052803373ffffffffffffffffffffffffffffffffffffffff16815260200184815260200183815250908060018154018082558091505060019003906000526020600020906003020160009091909190915060008201518160000160006101000a81548173ffffffffffffffffffffffffffffffffffffffff021916908373ffffffffffffffffffffffffffffffffffffffff16021790555060208201518160010190816101589190610855565b50604082015181600201908161016e9190610855565b5050507f5965d8df4a9351cf7a8dc5d828977eecb1571a18131539e9deabff54c147651d3383836040516101a4939291906109dc565b60405180910390a15050565b600080600090505b60005481101561035457610279600182815481106101d9576101d8610a21565b5b906000526020600020906003020160010180546101f590610678565b80601f016020809104026020016040519081016040528092919081815260200182805461022190610678565b801561026e5780601f106102435761010080835404028352916020019161026e565b820191906000526020600020905b81548152906001019060200180831161025157829003601f168201915b505050505085610360565b801561033857506103376001828154811061029757610296610a21565b5b906000526020600020906003020160020180546102b390610678565b80601f01602080910402602001604051908101604052809291908181526020018280546102df90610678565b801561032c5780601f106103015761010080835404028352916020019161032c565b820191906000526020600020905b81548152906001019060200180831161030f57829003601f168201915b505050505084610360565b5b1561034757600191505061035a565b80806001019150506101b8565b50600090505b92915050565b6000816040516020016103739190610a8c565b604051602081830303815290604052805190602001208360405160200161039a9190610a8c565b60405160208183030381529060405280519060200120036103be57600190506103c3565b600090505b92915050565b6000604051905090565b600080fd5b600080fd5b600080fd5b600080fd5b6000601f19601f8301169050919050565b7f4e487b7100000000000000000000000000000000000000000000000000000000600052604160045260246000fd5b610430826103e7565b810181811067ffffffffffffffff8211171561044f5761044e6103f8565b5b80604052505050565b60006104626103c9565b905061046e8282610427565b919050565b600067ffffffffffffffff82111561048e5761048d6103f8565b5b610497826103e7565b9050602081019050919050565b82818337600083830152505050565b60006104c66104c184610473565b610458565b9050828152602081018484840111156104e2576104e16103e2565b5b6104ed8482856104a4565b509392505050565b600082601f83011261050a576105096103dd565b5b813561051a8482602086016104b3565b91505092915050565b6000806040838503121561053a576105396103d3565b5b600083013567ffffffffffffffff811115610558576105576103d8565b5b610564858286016104f5565b925050602083013567ffffffffffffffff811115610585576105846103d8565b5b610591858286016104f5565b9150509250929050565b60008115159050919050565b6105b08161059b565b82525050565b60006020820190506105cb60008301846105a7565b92915050565b6000819050919050565b7f4e487b7100000000000000000000000000000000000000000000000000000000600052601160045260246000fd5b6000610615826105d1565b9150610620836105d1565b9250828201905080821115610638576106376105db565b5b92915050565b600081519050919050565b7f4e487b7100000000000000000000000000000000000000000000000000000000600052602260045260246000fd5b6000600282049050600182168061069057607f821691505b6020821081036106a3576106a2610649565b5b50919050565b60008190508160005260206000209050919050565b60006020601f8301049050919050565b600082821b905092915050565b60006008830261070b7fffffffffffffffffffffffffffffffffffffffffffffffffffffffffffffffff826106ce565b61071586836106ce565b95508019841693508086168417925050509392505050565b6000819050919050565b600061075261074d610748846105d1565b61072d565b6105d1565b9050919050565b6000819050919050565b61076c83610737565b61078061077882610759565b8484546106db565b825550505050565b600090565b610795610788565b6107a0818484610763565b505050565b5b818110156107c4576107b960008261078d565b6001810190506107a6565b5050565b601f821115610809576107da816106a9565b6107e3846106be565b810160208510156107f2578190505b6108066107fe856106be565b8301826107a5565b50505b505050565b600082821c905092915050565b600061082c6000198460080261080e565b1980831691505092915050565b6000610845838361081b565b9150826002028217905092915050565b61085e8261063e565b67ffffffffffffffff811115610877576108766103f8565b5b6108818254610678565b61088c8282856107c8565b600060209050601f8311600181146108bf57600084156108ad578287015190505b6108b78582610839565b86555061091f565b601f1984166108cd866106a9565b60005b828110156108f5578489015182556001820191506020850194506020810190506108d0565b86831015610912578489015161090e601f89168261081b565b8355505b6001600288020188555050505b505050505050565b600073ffffffffffffffffffffffffffffffffffffffff82169050919050565b600061095282610927565b9050919050565b61096281610947565b82525050565b600082825260208201905092915050565b60005b8381101561099757808201518184015260208101905061097c565b60008484015250505050565b60006109ae8261063e565b6109b88185610968565b93506109c8818560208601610979565b6109d1816103e7565b840191505092915050565b60006060820190506109f16000830186610959565b8181036020830152610a0381856109a3565b90508181036040830152610a1781846109a3565b9050949350505050565b7f4e487b7100000000000000000000000000000000000000000000000000000000600052603260045260246000fd5b600081905092915050565b6000610a668261063e565b610a708185610a50565b9350610a80818560208601610979565b80840191505092915050565b6000610a988284610a5b565b91508190509291505056fea2646970667358221220b9ddc33590d9b9065d44517acbbde2b0592f390788a3ff8a35a869f1d02a0b3a64736f6c63430008180033",
    "linkReferences": {},
    "deployedLinkReferences": {}
}