{
  "_format": "hh-sol-artifact-1",
  "contractName": "documentVerify",
  "sourceName": "contracts/verify.sol",
  "abi": [
    {
      "anonymous": false,
      "inputs": [
        {
          "indexed": false,
          "internalType": "address",
          "name": "from",
          "type": "address"
        },
        {
          "indexed": false,
          "internalType": "string",
          "name": "doc_hash",
          "type": "string"
        },
        {
          "indexed": false,
          "internalType": "string",
          "name": "public_key",
          "type": "string"
        }
      ],
      "name": "doc_entry",
      "type": "event"
    },
    {
      "inputs": [],
      "name": "docCnt",
      "outputs": [
        {
          "internalType": "uint256",
          "name": "",
          "type": "uint256"
        }
      ],
      "stateMutability": "view",
      "type": "function"
    },
    {
      "inputs": [
        {
          "internalType": "string",
          "name": "doc_hash",
          "type": "string"
        },
        {
          "internalType": "string",
          "name": "public_key",
          "type": "string"
        }
      ],
      "name": "secureDocument",
      "outputs": [],
      "stateMutability": "nonpayable",
      "type": "function"
    },
    {
      "inputs": [
        {
          "internalType": "string",
          "name": "doc_hash",
          "type": "string"
        },
        {
          "internalType": "string",
          "name": "public_key",
          "type": "string"
        }
      ],
      "name": "validateDocument",
      "outputs": [
        {
          "internalType": "string",
          "name": "",
          "type": "string"
        }
      ],
      "stateMutability": "view",
      "type": "function"
    }
  ],
  "bytecode": "0x608060405234801561001057600080fd5b50610b83806100206000396000f3fe608060405234801561001057600080fd5b50600436106100415760003560e01c80631ada3d0e146100465780633a6f3065146100645780639669e5e114610080575b600080fd5b61004e6100b0565b60405161005b9190610476565b60405180910390f35b61007e600480360381019061007991906105eb565b6100b6565b005b61009a600480360381019061009591906105eb565b6101df565b6040516100a791906106e2565b60405180910390f35b60005481565b60016000808282546100c89190610733565b92505081905550600160405180606001604052803373ffffffffffffffffffffffffffffffffffffffff16815260200184815260200183815250908060018154018082558091505060019003906000526020600020906003020160009091909190915060008201518160000160006101000a81548173ffffffffffffffffffffffffffffffffffffffff021916908373ffffffffffffffffffffffffffffffffffffffff16021790555060208201518160010190816101879190610973565b50604082015181600201908161019d9190610973565b5050507f5965d8df4a9351cf7a8dc5d828977eecb1571a18131539e9deabff54c147651d3383836040516101d393929190610a86565b60405180910390a15050565b606060005b6000548110156103b4576102a56001828154811061020557610204610acb565b5b9060005260206000209060030201600101805461022190610796565b80601f016020809104026020016040519081016040528092919081815260200182805461024d90610796565b801561029a5780601f1061026f5761010080835404028352916020019161029a565b820191906000526020600020905b81548152906001019060200180831161027d57829003601f168201915b5050505050856103f4565b80156103645750610363600182815481106102c3576102c2610acb565b5b906000526020600020906003020160020180546102df90610796565b80601f016020809104026020016040519081016040528092919081815260200182805461030b90610796565b80156103585780601f1061032d57610100808354040283529160200191610358565b820191906000526020600020905b81548152906001019060200180831161033b57829003601f168201915b5050505050846103f4565b5b156103a7576040518060400160405280600881526020017f4f726967696e616c0000000000000000000000000000000000000000000000008152509150506103ee565b80806001019150506101e4565b506040518060400160405280600481526020017f46616b650000000000000000000000000000000000000000000000000000000081525090505b92915050565b6000816040516020016104079190610b36565b604051602081830303815290604052805190602001208360405160200161042e9190610b36565b60405160208183030381529060405280519060200120036104525760019050610457565b600090505b92915050565b6000819050919050565b6104708161045d565b82525050565b600060208201905061048b6000830184610467565b92915050565b6000604051905090565b600080fd5b600080fd5b600080fd5b600080fd5b6000601f19601f8301169050919050565b7f4e487b7100000000000000000000000000000000000000000000000000000000600052604160045260246000fd5b6104f8826104af565b810181811067ffffffffffffffff82111715610517576105166104c0565b5b80604052505050565b600061052a610491565b905061053682826104ef565b919050565b600067ffffffffffffffff821115610556576105556104c0565b5b61055f826104af565b9050602081019050919050565b82818337600083830152505050565b600061058e6105898461053b565b610520565b9050828152602081018484840111156105aa576105a96104aa565b5b6105b584828561056c565b509392505050565b600082601f8301126105d2576105d16104a5565b5b81356105e284826020860161057b565b91505092915050565b600080604083850312156106025761060161049b565b5b600083013567ffffffffffffffff8111156106205761061f6104a0565b5b61062c858286016105bd565b925050602083013567ffffffffffffffff81111561064d5761064c6104a0565b5b610659858286016105bd565b9150509250929050565b600081519050919050565b600082825260208201905092915050565b60005b8381101561069d578082015181840152602081019050610682565b60008484015250505050565b60006106b482610663565b6106be818561066e565b93506106ce81856020860161067f565b6106d7816104af565b840191505092915050565b600060208201905081810360008301526106fc81846106a9565b905092915050565b7f4e487b7100000000000000000000000000000000000000000000000000000000600052601160045260246000fd5b600061073e8261045d565b91506107498361045d565b925082820190508082111561076157610760610704565b5b92915050565b7f4e487b7100000000000000000000000000000000000000000000000000000000600052602260045260246000fd5b600060028204905060018216806107ae57607f821691505b6020821081036107c1576107c0610767565b5b50919050565b60008190508160005260206000209050919050565b60006020601f8301049050919050565b600082821b905092915050565b6000600883026108297fffffffffffffffffffffffffffffffffffffffffffffffffffffffffffffffff826107ec565b61083386836107ec565b95508019841693508086168417925050509392505050565b6000819050919050565b600061087061086b6108668461045d565b61084b565b61045d565b9050919050565b6000819050919050565b61088a83610855565b61089e61089682610877565b8484546107f9565b825550505050565b600090565b6108b36108a6565b6108be818484610881565b505050565b5b818110156108e2576108d76000826108ab565b6001810190506108c4565b5050565b601f821115610927576108f8816107c7565b610901846107dc565b81016020851015610910578190505b61092461091c856107dc565b8301826108c3565b50505b505050565b600082821c905092915050565b600061094a6000198460080261092c565b1980831691505092915050565b60006109638383610939565b9150826002028217905092915050565b61097c82610663565b67ffffffffffffffff811115610995576109946104c0565b5b61099f8254610796565b6109aa8282856108e6565b600060209050601f8311600181146109dd57600084156109cb578287015190505b6109d58582610957565b865550610a3d565b601f1984166109eb866107c7565b60005b82811015610a13578489015182556001820191506020850194506020810190506109ee565b86831015610a305784890151610a2c601f891682610939565b8355505b6001600288020188555050505b505050505050565b600073ffffffffffffffffffffffffffffffffffffffff82169050919050565b6000610a7082610a45565b9050919050565b610a8081610a65565b82525050565b6000606082019050610a9b6000830186610a77565b8181036020830152610aad81856106a9565b90508181036040830152610ac181846106a9565b9050949350505050565b7f4e487b7100000000000000000000000000000000000000000000000000000000600052603260045260246000fd5b600081905092915050565b6000610b1082610663565b610b1a8185610afa565b9350610b2a81856020860161067f565b80840191505092915050565b6000610b428284610b05565b91508190509291505056fea2646970667358221220982e22a9b029269ef64883776bc26fe8f91331e17a8d4c0699b94a49b164dc4864736f6c63430008180033",
  "linkReferences": {},
  "deployedLinkReferences": {}
}